{
  "contractName": "CryptohomaCrowdsale",
  "abi": [
    {
      "constant": true,
      "inputs": [],
      "name": "presale_percent",
      "outputs": [
        {
          "name": "",
          "type": "uint256"
        }
      ],
      "payable": false,
      "stateMutability": "view",
      "type": "function"
    },
    {
      "constant": true,
      "inputs": [],
      "name": "totalSupply",
      "outputs": [
        {
          "name": "",
          "type": "uint256"
        }
      ],
      "payable": false,
      "stateMutability": "view",
      "type": "function"
    },
    {
      "constant": true,
      "inputs": [],
      "name": "organizers_percent",
      "outputs": [
        {
          "name": "",
          "type": "uint256"
        }
      ],
      "payable": false,
      "stateMutability": "view",
      "type": "function"
    },
    {
      "constant": true,
      "inputs": [],
      "name": "rate",
      "outputs": [
        {
          "name": "",
          "type": "uint256"
        }
      ],
      "payable": false,
      "stateMutability": "view",
      "type": "function"
    },
    {
      "constant": true,
      "inputs": [],
      "name": "organizer8",
      "outputs": [
        {
          "name": "",
          "type": "address"
        }
      ],
      "payable": false,
      "stateMutability": "view",
      "type": "function"
    },
    {
      "constant": true,
      "inputs": [],
      "name": "airdrop",
      "outputs": [
        {
          "name": "",
          "type": "address"
        }
      ],
      "payable": false,
      "stateMutability": "view",
      "type": "function"
    },
    {
      "constant": true,
      "inputs": [],
      "name": "weiRaised",
      "outputs": [
        {
          "name": "",
          "type": "uint256"
        }
      ],
      "payable": false,
      "stateMutability": "view",
      "type": "function"
    },
    {
      "constant": true,
      "inputs": [],
      "name": "multisig",
      "outputs": [
        {
          "name": "",
          "type": "address"
        }
      ],
      "payable": false,
      "stateMutability": "view",
      "type": "function"
    },
    {
      "constant": true,
      "inputs": [],
      "name": "organizer2",
      "outputs": [
        {
          "name": "",
          "type": "address"
        }
      ],
      "payable": false,
      "stateMutability": "view",
      "type": "function"
    },
    {
      "constant": true,
      "inputs": [],
      "name": "airdrop_percent",
      "outputs": [
        {
          "name": "",
          "type": "uint256"
        }
      ],
      "payable": false,
      "stateMutability": "view",
      "type": "function"
    },
    {
      "constant": true,
      "inputs": [],
      "name": "wallet",
      "outputs": [
        {
          "name": "",
          "type": "address"
        }
      ],
      "payable": false,
      "stateMutability": "view",
      "type": "function"
    },
    {
      "constant": true,
      "inputs": [],
      "name": "organizer7",
      "outputs": [
        {
          "name": "",
          "type": "address"
        }
      ],
      "payable": false,
      "stateMutability": "view",
      "type": "function"
    },
    {
      "constant": true,
      "inputs": [],
      "name": "organizer6",
      "outputs": [
        {
          "name": "",
          "type": "address"
        }
      ],
      "payable": false,
      "stateMutability": "view",
      "type": "function"
    },
    {
      "constant": true,
      "inputs": [
        {
          "name": "_owner",
          "type": "address"
        }
      ],
      "name": "balanceOf",
      "outputs": [
        {
          "name": "balance",
          "type": "uint256"
        }
      ],
      "payable": false,
      "stateMutability": "view",
      "type": "function"
    },
    {
      "constant": true,
      "inputs": [],
      "name": "organizer3",
      "outputs": [
        {
          "name": "",
          "type": "address"
        }
      ],
      "payable": false,
      "stateMutability": "view",
      "type": "function"
    },
    {
      "constant": true,
      "inputs": [],
      "name": "owner",
      "outputs": [
        {
          "name": "",
          "type": "address"
        }
      ],
      "payable": false,
      "stateMutability": "view",
      "type": "function"
    },
    {
      "constant": true,
      "inputs": [],
      "name": "bounty",
      "outputs": [
        {
          "name": "",
          "type": "address"
        }
      ],
      "payable": false,
      "stateMutability": "view",
      "type": "function"
    },
    {
      "constant": true,
      "inputs": [],
      "name": "totalMinted",
      "outputs": [
        {
          "name": "",
          "type": "uint256"
        }
      ],
      "payable": false,
      "stateMutability": "view",
      "type": "function"
    },
    {
      "constant": false,
      "inputs": [
        {
          "name": "_to",
          "type": "address"
        },
        {
          "name": "_value",
          "type": "uint256"
        }
      ],
      "name": "transfer",
      "outputs": [
        {
          "name": "",
          "type": "bool"
        }
      ],
      "payable": false,
      "stateMutability": "nonpayable",
      "type": "function"
    },
    {
      "constant": true,
      "inputs": [],
      "name": "organizer5",
      "outputs": [
        {
          "name": "",
          "type": "address"
        }
      ],
      "payable": false,
      "stateMutability": "view",
      "type": "function"
    },
    {
      "constant": true,
      "inputs": [],
      "name": "bounty_percent",
      "outputs": [
        {
          "name": "",
          "type": "uint256"
        }
      ],
      "payable": false,
      "stateMutability": "view",
      "type": "function"
    },
    {
      "constant": true,
      "inputs": [],
      "name": "organizer4",
      "outputs": [
        {
          "name": "",
          "type": "address"
        }
      ],
      "payable": false,
      "stateMutability": "view",
      "type": "function"
    },
    {
      "constant": false,
      "inputs": [
        {
          "name": "_beneficiary",
          "type": "address"
        }
      ],
      "name": "buyTokens",
      "outputs": [],
      "payable": true,
      "stateMutability": "payable",
      "type": "function"
    },
    {
      "constant": false,
      "inputs": [
        {
          "name": "newOwner",
          "type": "address"
        }
      ],
      "name": "transferOwnership",
      "outputs": [],
      "payable": false,
      "stateMutability": "nonpayable",
      "type": "function"
    },
    {
      "constant": true,
      "inputs": [],
      "name": "rate2",
      "outputs": [
        {
          "name": "",
          "type": "uint256"
        }
      ],
      "payable": false,
      "stateMutability": "view",
      "type": "function"
    },
    {
      "constant": true,
      "inputs": [],
      "name": "organizer1",
      "outputs": [
        {
          "name": "",
          "type": "address"
        }
      ],
      "payable": false,
      "stateMutability": "view",
      "type": "function"
    },
    {
      "constant": true,
      "inputs": [],
      "name": "token",
      "outputs": [
        {
          "name": "",
          "type": "address"
        }
      ],
      "payable": false,
      "stateMutability": "view",
      "type": "function"
    },
    {
      "constant": true,
      "inputs": [],
      "name": "presale",
      "outputs": [
        {
          "name": "",
          "type": "address"
        }
      ],
      "payable": false,
      "stateMutability": "view",
      "type": "function"
    },
    {
      "inputs": [],
      "payable": false,
      "stateMutability": "nonpayable",
      "type": "constructor"
    },
    {
      "payable": true,
      "stateMutability": "payable",
      "type": "fallback"
    },
    {
      "anonymous": false,
      "inputs": [
        {
          "indexed": true,
          "name": "from",
          "type": "address"
        },
        {
          "indexed": true,
          "name": "to",
          "type": "address"
        },
        {
          "indexed": false,
          "name": "value",
          "type": "uint256"
        }
      ],
      "name": "Transfer",
      "type": "event"
    },
    {
      "anonymous": false,
      "inputs": [
        {
          "indexed": true,
          "name": "previousOwner",
          "type": "address"
        },
        {
          "indexed": true,
          "name": "newOwner",
          "type": "address"
        }
      ],
      "name": "OwnershipTransferred",
      "type": "event"
    },
    {
      "anonymous": false,
      "inputs": [
        {
          "indexed": true,
          "name": "purchaser",
          "type": "address"
        },
        {
          "indexed": true,
          "name": "beneficiary",
          "type": "address"
        },
        {
          "indexed": false,
          "name": "value",
          "type": "uint256"
        },
        {
          "indexed": false,
          "name": "amount",
          "type": "uint256"
        }
      ],
      "name": "TokenPurchase",
      "type": "event"
    },
    {
      "constant": false,
      "inputs": [],
      "name": "finishCrowdsale",
      "outputs": [],
      "payable": false,
      "stateMutability": "nonpayable",
      "type": "function"
    }
  ],
  "bytecode": "0x6060604052635ad31490600755601f60085560098054600160a060020a0319167316dc1a72b44997a5e169874f901570bc687a2ee01790556a295be96e64066972000000600a556200005062000a85565b604051809103906000f08015156200006757600080fd5b600c8054600160a060020a0392909216600160a060020a03199283161790556005600d819055600e556002600f908155601055601180548216731e363e5af2ba28c40abf56d6d0f6fd91445d6bab179055601280548216735fec0d2733b28e89d4df7a052b95160e324e227417905560138054821673cbe9df774b77ecb64c6e695bb9731d9a42a6de7a1790556014805482167377f5f6b39e00f0fbaa4d943d65983d17ed7e0fa41790556015805482167390e0a14d75ecd5f301be8f9e2081fab12bb8adb2179055601680548216737cc3e141b41ee40904dd293c150281925daed9d61790556017805482167356c2c7a7391e17399aa7a03e03463fa1f5eb693a17905560188054821673571bc2033f7b495f6630bc3c429649c0af41746917905560198054821673e7da66b24212a08e6bbb1abe93b8d1ff35e37c41179055601a805482167326b038b6199f81df008e2664a36a3e842b0895d6179055601b80549091167376a4da392034418cee3e79c28f47f982b1522677179055650a012317b000601c55650da475abf000601d5534156200020557600080fd5b601c54600954600c5460009291600160a060020a0390811691168383116200022c57600080fd5b600160a060020a03821615156200024257600080fd5b600160a060020a03811615156200025857600080fd5b60029290925560018054600160a060020a0319908116600160a060020a0393841617909155600080548216938316939093179092556004805490921633909116179055600d54600a54620002d791606491620002c29164010000000062000a238102620009711704565b906401000000006200099c62000a5d82021704565b600b54909150620002f79082640100000000620008bd62000a7582021704565b600b55600c54601154600160a060020a03918216916340c10f199116836040517c010000000000000000000000000000000000000000000000000000000063ffffffff8516028152600160a060020a0390921660048301526024820152604401602060405180830381600087803b15156200037157600080fd5b5af115156200037f57600080fd5b50505060405180515050600e54600a54620003b091606491620002c2916401000000006200097162000a2382021704565b600b54909150620003d09082640100000000620008bd62000a7582021704565b600b55600c54601254600160a060020a03918216916340c10f199116836040517c010000000000000000000000000000000000000000000000000000000063ffffffff8516028152600160a060020a0390921660048301526024820152604401602060405180830381600087803b15156200044a57600080fd5b5af115156200045857600080fd5b50505060405180515050600f54600a546200048991606491620002c2916401000000006200097162000a2382021704565b600b54909150620004a99082640100000000620008bd62000a7582021704565b600b55600c54601354600160a060020a03918216916340c10f199116836040517c010000000000000000000000000000000000000000000000000000000063ffffffff8516028152600160a060020a0390921660048301526024820152604401602060405180830381600087803b15156200052357600080fd5b5af115156200053157600080fd5b50505060405180515050601054600a546200056291606491620002c2916401000000006200097162000a2382021704565b600b54909150620005829082640100000000620008bd62000a7582021704565b600b55620005a08160086401000000006200099c62000a5d82021704565b600c54601454919250600160a060020a03908116916340c10f199116836040517c010000000000000000000000000000000000000000000000000000000063ffffffff8516028152600160a060020a0390921660048301526024820152604401602060405180830381600087803b15156200061a57600080fd5b5af115156200062857600080fd5b50505060405180515050600c54601554600160a060020a03918216916340c10f199116836040517c010000000000000000000000000000000000000000000000000000000063ffffffff8516028152600160a060020a0390921660048301526024820152604401602060405180830381600087803b1515620006a957600080fd5b5af11515620006b757600080fd5b50505060405180515050600c54601654600160a060020a03918216916340c10f199116836040517c010000000000000000000000000000000000000000000000000000000063ffffffff8516028152600160a060020a0390921660048301526024820152604401602060405180830381600087803b15156200073857600080fd5b5af115156200074657600080fd5b50505060405180515050600c54601754600160a060020a03918216916340c10f199116836040517c010000000000000000000000000000000000000000000000000000000063ffffffff8516028152600160a060020a0390921660048301526024820152604401602060405180830381600087803b1515620007c757600080fd5b5af11515620007d557600080fd5b50505060405180515050600c54601854600160a060020a03918216916340c10f199116836040517c010000000000000000000000000000000000000000000000000000000063ffffffff8516028152600160a060020a0390921660048301526024820152604401602060405180830381600087803b15156200085657600080fd5b5af115156200086457600080fd5b50505060405180515050600c54601954600160a060020a03918216916340c10f199116836040517c010000000000000000000000000000000000000000000000000000000063ffffffff8516028152600160a060020a0390921660048301526024820152604401602060405180830381600087803b1515620008e557600080fd5b5af11515620008f357600080fd5b50505060405180515050600c54601a54600160a060020a03918216916340c10f199116836040517c010000000000000000000000000000000000000000000000000000000063ffffffff8516028152600160a060020a0390921660048301526024820152604401602060405180830381600087803b15156200097457600080fd5b5af115156200098257600080fd5b50505060405180515050600c54601b54600160a060020a03918216916340c10f199116836040517c010000000000000000000000000000000000000000000000000000000063ffffffff8516028152600160a060020a0390921660048301526024820152604401602060405180830381600087803b151562000a0357600080fd5b5af1151562000a1157600080fd5b50505060405180519050505062000a96565b60008083151562000a38576000915062000a56565b5082820282848281151562000a4957fe5b041462000a5257fe5b8091505b5092915050565b600080828481151562000a6c57fe5b04949350505050565b60008282018381101562000a5257fe5b604051610ea6806200148583390190565b6109df8062000aa66000396000f30060606040526004361061015b5763ffffffff60e060020a60003504166312573932811461016657806318160ddd1461018b578063256f992b1461019e5780632c4e722e146101b15780632fc64ff7146101c45780633884d635146101f35780634042b66f146102065780634783c35b146102195780634b28a6741461022c5780634f9c5bf31461023f578063521eb273146102525780636267c456146102655780636ec847111461027857806370a082311461028b57806370ed1664146102aa5780638da5cb5b146102bd578063943dfef1146102d0578063a2309ff8146102e3578063a9059cbb146102f6578063a93fd5f11461032c578063b0d138e81461033f578063b512549314610352578063b80cdcf614610365578063ec8ac4d814610378578063f2fde38b1461038c578063f555b815146103ab578063fa82e9fc146103be578063fc0c546a146103d1578063fdea8e0b146103e4575b610164336103f7565b005b341561017157600080fd5b61017961049f565b60405190815260200160405180910390f35b341561019657600080fd5b6101796104a5565b34156101a957600080fd5b6101796104ab565b34156101bc57600080fd5b6101796104b1565b34156101cf57600080fd5b6101d76104b7565b604051600160a060020a03909116815260200160405180910390f35b34156101fe57600080fd5b6101d76104c6565b341561021157600080fd5b6101796104d5565b341561022457600080fd5b6101d76104db565b341561023757600080fd5b6101d76104ea565b341561024a57600080fd5b6101796104f9565b341561025d57600080fd5b6101d76104ff565b341561027057600080fd5b6101d761050e565b341561028357600080fd5b6101d761051d565b341561029657600080fd5b610179600160a060020a036004351661052c565b34156102b557600080fd5b6101d7610547565b34156102c857600080fd5b6101d7610556565b34156102db57600080fd5b6101d7610565565b34156102ee57600080fd5b610179610574565b341561030157600080fd5b610318600160a060020a036004351660243561057a565b604051901515815260200160405180910390f35b341561033757600080fd5b6101d7610675565b341561034a57600080fd5b610179610684565b341561035d57600080fd5b6101d761068a565b341561037057600080fd5b610164610699565b610164600160a060020a03600435166103f7565b341561039757600080fd5b610164600160a060020a0360043516610745565b34156103b657600080fd5b6101796107e0565b34156103c957600080fd5b6101d76107e6565b34156103dc57600080fd5b6101d76107f5565b34156103ef57600080fd5b6101d7610804565b3460006104048383610813565b61040d8261088e565b600354909150610423908363ffffffff6108bd16565b60035561043083826108d7565b82600160a060020a031633600160a060020a03167f623b3804fa71d67900d064613da8f94b9617215ee90799290593e1745087ad18848460405191825260208201526040908101905180910390a361048883836108e1565b6104906108e5565b61049a83836108e1565b505050565b600d5481565b600a5481565b60105481565b601c5481565b601b54600160a060020a031681565b601354600160a060020a031681565b60035481565b600954600160a060020a031681565b601554600160a060020a031681565b600f5481565b600154600160a060020a031681565b601a54600160a060020a031681565b601954600160a060020a031681565b600160a060020a031660009081526005602052604090205490565b601654600160a060020a031681565b600454600160a060020a031681565b601254600160a060020a031681565b600b5481565b6000600160a060020a038316151561059157600080fd5b600160a060020a0333166000908152600560205260409020548211156105b657600080fd5b600160a060020a0333166000908152600560205260409020546105df908363ffffffff6108e716565b600160a060020a033381166000908152600560205260408082209390935590851681522054610614908363ffffffff6108bd16565b600160a060020a0380851660008181526005602052604090819020939093559133909116907fddf252ad1be2c89b69c2b068fc378daa952ba7f163c4a11628f55a4df523b3ef9085905190815260200160405180910390a350600192915050565b601854600160a060020a031681565b600e5481565b601754600160a060020a031681565b60045433600160a060020a039081169116146106b457600080fd5b600954600160a060020a039081169030163180156108fc0290604051600060405180830381858888f1935050505015156106ed57600080fd5b600c54600160a060020a0316637d64bcb46040518163ffffffff1660e060020a028152600401602060405180830381600087803b151561072c57600080fd5b5af1151561073957600080fd5b50505060405180515050565b60045433600160a060020a0390811691161461076057600080fd5b600160a060020a038116151561077557600080fd5b600454600160a060020a0380831691167f8be0079c531659141344cd1fd0a4f28419497f9722a3daafe3b4186f6b6457e060405160405180910390a36004805473ffffffffffffffffffffffffffffffffffffffff1916600160a060020a0392909216919091179055565b601d5481565b601454600160a060020a031681565b600c54600160a060020a031681565b601154600160a060020a031681565b6000600160a060020a038316151561082a57600080fd5b81151561083657600080fd5b60075442118015610851575060085462015180026007540142105b151561085c57600080fd5b6108658261088e565b600b5490915061087b908263ffffffff6108bd16565b600b819055600a54101561049a57600080fd5b6007546000906108a7906213c68063ffffffff6108bd16565b4211156108b557601d54601c555b50601c540290565b6000828201838110156108cc57fe5b8091505b5092915050565b6108e182826108f9565b5050565b565b6000828211156108f357fe5b50900390565b600054600160a060020a03166340c10f19838360405160e060020a63ffffffff8516028152600160a060020a0390921660048301526024820152604401602060405180830381600087803b151561094f57600080fd5b5af1151561095c57600080fd5b5050506040518051905015156108e157600080fd5b60008083151561098457600091506108d0565b5082820282848281151561099457fe5b04146108cc57fe5b60008082848115156109aa57fe5b049493505050505600a165627a7a723058203e240cf3e584d77a1423c8c498bdcbf3563bedbd1392a553530c7f22ed97fb120029606060409081526003805460a060020a60ff02191690558051908101604052600a81527f43727970746f486f6d61000000000000000000000000000000000000000000006020820152600490805161005b9291602001906100c9565b5060408051908101604052600481527f484f4d4100000000000000000000000000000000000000000000000000000000602082015260059080516100a39291602001906100c9565b50601260065560038054600160a060020a03191633600160a060020a0316179055610164565b828054600181600116156101000203166002900490600052602060002090601f016020900481019282601f1061010a57805160ff1916838001178555610137565b82800160010185558215610137579182015b8281111561013757825182559160200191906001019061011c565b50610143929150610147565b5090565b61016191905b80821115610143576000815560010161014d565b90565b610d33806101736000396000f3006060604052600436106100f05763ffffffff7c010000000000000000000000000000000000000000000000000000000060003504166305d2035b81146100f557806306fdde031461011c578063095ea7b3146101a657806318160ddd146101c857806323b872dd146101ed578063313ce5671461021557806340c10f191461022857806342966c681461024a578063661884631461026257806370a08231146102845780637d64bcb4146102a35780638da5cb5b146102b657806395d89b41146102e5578063a9059cbb146102f8578063d73dd6231461031a578063dd62ed3e1461033c578063f2fde38b14610361575b600080fd5b341561010057600080fd5b610108610380565b604051901515815260200160405180910390f35b341561012757600080fd5b61012f6103a1565b60405160208082528190810183818151815260200191508051906020019080838360005b8381101561016b578082015183820152602001610153565b50505050905090810190601f1680156101985780820380516001836020036101000a031916815260200191505b509250505060405180910390f35b34156101b157600080fd5b610108600160a060020a036004351660243561043f565b34156101d357600080fd5b6101db6104ab565b60405190815260200160405180910390f35b34156101f857600080fd5b610108600160a060020a03600435811690602435166044356104b1565b341561022057600080fd5b6101db61061f565b341561023357600080fd5b610108600160a060020a0360043516602435610625565b341561025557600080fd5b610260600435610732565b005b341561026d57600080fd5b610108600160a060020a0360043516602435610819565b341561028f57600080fd5b6101db600160a060020a0360043516610913565b34156102ae57600080fd5b61010861092e565b34156102c157600080fd5b6102c96109db565b604051600160a060020a03909116815260200160405180910390f35b34156102f057600080fd5b61012f6109ea565b341561030357600080fd5b610108600160a060020a0360043516602435610a55565b341561032557600080fd5b610108600160a060020a0360043516602435610b55565b341561034757600080fd5b6101db600160a060020a0360043581169060243516610bf9565b341561036c57600080fd5b610260600160a060020a0360043516610c24565b60035474010000000000000000000000000000000000000000900460ff1681565b60048054600181600116156101000203166002900480601f0160208091040260200160405190810160405280929190818152602001828054600181600116156101000203166002900480156104375780601f1061040c57610100808354040283529160200191610437565b820191906000526020600020905b81548152906001019060200180831161041a57829003601f168201915b505050505081565b600160a060020a03338116600081815260026020908152604080832094871680845294909152808220859055909291907f8c5be1e5ebec7d5bd14f71427d1e84f3dd0314c0f7b2291e5b200ac8c7c3b9259085905190815260200160405180910390a350600192915050565b60015490565b6000600160a060020a03831615156104c857600080fd5b600160a060020a0384166000908152602081905260409020548211156104ed57600080fd5b600160a060020a038085166000908152600260209081526040808320339094168352929052205482111561052057600080fd5b600160a060020a038416600090815260208190526040902054610549908363ffffffff610cbf16565b600160a060020a03808616600090815260208190526040808220939093559085168152205461057e908363ffffffff610cd116565b600160a060020a03808516600090815260208181526040808320949094558783168252600281528382203390931682529190915220546105c4908363ffffffff610cbf16565b600160a060020a0380861660008181526002602090815260408083203386168452909152908190209390935590851691600080516020610ce88339815191529085905190815260200160405180910390a35060019392505050565b60065481565b60035460009033600160a060020a0390811691161461064357600080fd5b60035474010000000000000000000000000000000000000000900460ff161561066b57600080fd5b60015461067e908363ffffffff610cd116565b600155600160a060020a0383166000908152602081905260409020546106aa908363ffffffff610cd116565b600160a060020a0384166000818152602081905260409081902092909255907f0f6798a560793a54c3bcfe86a93cde1e73087d944c0ea20544137d41213968859084905190815260200160405180910390a2600160a060020a0383166000600080516020610ce88339815191528460405190815260200160405180910390a350600192915050565b600160a060020a03331660009081526020819052604081205482111561075757600080fd5b5033600160a060020a03811660009081526020819052604090205461077c9083610cbf565b600160a060020a0382166000908152602081905260409020556001546107a8908363ffffffff610cbf16565b600155600160a060020a0381167fcc16f5dbb4873280815c1ee09dbd06736cffcc184412cf7a71a0fdb75d397ca58360405190815260200160405180910390a26000600160a060020a038216600080516020610ce88339815191528460405190815260200160405180910390a35050565b600160a060020a0333811660009081526002602090815260408083209386168352929052908120548083111561087657600160a060020a0333811660009081526002602090815260408083209388168352929052908120556108ad565b610886818463ffffffff610cbf16565b600160a060020a033381166000908152600260209081526040808320938916835292905220555b600160a060020a0333811660008181526002602090815260408083209489168084529490915290819020547f8c5be1e5ebec7d5bd14f71427d1e84f3dd0314c0f7b2291e5b200ac8c7c3b925915190815260200160405180910390a35060019392505050565b600160a060020a031660009081526020819052604090205490565b60035460009033600160a060020a0390811691161461094c57600080fd5b60035474010000000000000000000000000000000000000000900460ff161561097457600080fd5b6003805474ff00000000000000000000000000000000000000001916740100000000000000000000000000000000000000001790557fae5184fba832cb2b1f702aca6117b8d265eaf03ad33eb133f19dde0f5920fa0860405160405180910390a150600190565b600354600160a060020a031681565b60058054600181600116156101000203166002900480601f0160208091040260200160405190810160405280929190818152602001828054600181600116156101000203166002900480156104375780601f1061040c57610100808354040283529160200191610437565b6000600160a060020a0383161515610a6c57600080fd5b600160a060020a033316600090815260208190526040902054821115610a9157600080fd5b600160a060020a033316600090815260208190526040902054610aba908363ffffffff610cbf16565b600160a060020a033381166000908152602081905260408082209390935590851681522054610aef908363ffffffff610cd116565b60008085600160a060020a0316600160a060020a031681526020019081526020016000208190555082600160a060020a031633600160a060020a0316600080516020610ce88339815191528460405190815260200160405180910390a350600192915050565b600160a060020a033381166000908152600260209081526040808320938616835292905290812054610b8d908363ffffffff610cd116565b600160a060020a0333811660008181526002602090815260408083209489168084529490915290819020849055919290917f8c5be1e5ebec7d5bd14f71427d1e84f3dd0314c0f7b2291e5b200ac8c7c3b92591905190815260200160405180910390a350600192915050565b600160a060020a03918216600090815260026020908152604080832093909416825291909152205490565b60035433600160a060020a03908116911614610c3f57600080fd5b600160a060020a0381161515610c5457600080fd5b600354600160a060020a0380831691167f8be0079c531659141344cd1fd0a4f28419497f9722a3daafe3b4186f6b6457e060405160405180910390a36003805473ffffffffffffffffffffffffffffffffffffffff1916600160a060020a0392909216919091179055565b600082821115610ccb57fe5b50900390565b600082820183811015610ce057fe5b93925050505600ddf252ad1be2c89b69c2b068fc378daa952ba7f163c4a11628f55a4df523b3efa165627a7a72305820fc9351a9cb01e20f3371f17512c9754006ec2a532851f410421be6a7dc5d9f8a0029",
  "source": "pragma solidity ^0.4.18;\n\nimport \"zeppelin-solidity/contracts/crowdsale/emission/MintedCrowdsale.sol\";\nimport \"zeppelin-solidity/contracts/token/ERC20/BasicToken.sol\";\nimport \"zeppelin-solidity/contracts/ownership/Ownable.sol\";\nimport \"./CryptohomaToken.sol\";\n\ncontract CryptohomaCrowdsale is MintedCrowdsale, Ownable, BasicToken {\n    \n    // Начало Crowdsale - 15.04.2018 09:00:00\n    uint start = 1523782800; //1523145601;\n\n    // Период сбора денег\n    uint period = 31;\n\n    // Адрес получателя средств, переданных за токены\n    address public multisig = 0x16dc1a72b44997a5e169874f901570bc687a2ee0;\n\n    // Всего будет выпущено    \n    uint256 public totalSupply = 50000000 * 1 ether;\n\n    // Всего токенов выпустили\n    uint256 public totalMinted;\n    \n    CryptohomaToken public token = new CryptohomaToken();\n\n    // Процент на Pre-Sale \n    uint public presale_percent = 5;\n    // Процент на Рекламу\n    uint public bounty_percent = 5;\n    // Процент на AirDrop\n    uint public airdrop_percent = 2;\n    // Процент организаторов\n    uint public organizers_percent = 15;\n\n    address public presale = 0x1e363e5af2ba28c40abf56d6d0f6fd91445d6bab;\n    address public bounty = 0x5fec0d2733b28e89d4df7a052b95160e324e2274;\n    address public airdrop = 0xcbe9df774b77ecb64c6e695bb9731d9a42a6de7a;\n    // Кошельки организаторов\n    address public organizer1 = 0x77f5f6b39e00f0fbaa4d943d65983d17ed7e0fa4;\n    address public organizer2 = 0x90e0a14d75ecd5f301be8f9e2081fab12bb8adb2;\n    address public organizer3 = 0x7cc3e141b41ee40904dd293c150281925daed9d6;\n    address public organizer4 = 0x56c2c7a7391e17399aa7a03e03463fa1f5eb693a;\n    address public organizer5 = 0x571bc2033f7b495f6630bc3c429649c0af417469;\n    address public organizer6 = 0xe7da66b24212a08e6bbb1abe93b8d1ff35e37c41;\n    address public organizer7 = 0x26b038b6199f81df008e2664a36a3e842b0895d6;\n    address public organizer8 = 0x76a4da392034418cee3e79c28f47f982b1522677;\n    // Стоимость токена в wei\n    uint256 public rate = 0.000011 * 1 ether; //0.000011 * 1 ether;\n    uint256 public rate2 = 0.000015 * 1 ether;\n    \n    function CryptohomaCrowdsale (\n        //address _wallet\n    ) public Crowdsale(rate, multisig, ERC20(token)) {\n \n        // Отправляем токены на pre-sale\n        uint256 tokens = totalSupply.mul(presale_percent).div(100);\n        // Считаем выпущенные токены\n        totalMinted = totalMinted.add(tokens);\n        // Выпускаем токены на адрес\n        token.mint(presale, tokens);\n\n        // Отправляем токены на bounty\n        tokens = totalSupply.mul(bounty_percent).div(100);\n        // Считаем выпущенные токены\n        totalMinted = totalMinted.add(tokens);\n        // Выпускаем токены на адрес\n        token.mint(bounty, tokens);\n\n        // Отправляем на Air Drop\n        tokens = totalSupply.mul(airdrop_percent).div(100);\n        // Считаем выпущенные токены\n        totalMinted = totalMinted.add(tokens);\n        // Выпускаем токены на адрес\n        token.mint(airdrop, tokens);\n\n        // Токены для организаторов\n        tokens = totalSupply.mul(organizers_percent).div(100);\n        // Считаем выпущенные токены\n        totalMinted = totalMinted.add(tokens);\n        // берем 8-ую часть и переправлем организаторам\n        tokens = tokens.div(8);\n        // Выпускаем токены на адреса\n        token.mint(organizer1, tokens);\n        token.mint(organizer2, tokens);\n        token.mint(organizer3, tokens);\n        token.mint(organizer4, tokens);\n        token.mint(organizer5, tokens);\n        token.mint(organizer6, tokens);\n        token.mint(organizer7, tokens);\n        token.mint(organizer8, tokens);\n\n    }\n/*\n    function getBalanseOf(address _address) public {\n        return balance(_address);\n    }\n*/\n    /**\n     * @dev Заканчиваем распродажу. Выполняет только владелец токена\n     */\n    function finishCrowdsale() onlyOwner public {\n        // Переводим собранный Эфир на счет организатора\n        multisig.transfer(this.balance);\n\n        token.finishMinting();\n    }\n\n    /**\n    * @dev Determines how ETH is stored/forwarded on purchases. ***ПЕРЕОПРЕДЕЛЕНО***\n    */\n    function _forwardFunds() internal {\n        //wallet.transfer(msg.value);\n    }\n\n    /**\n    * @dev Override to extend the way in which ether is converted to tokens. ***ПЕРЕОПРЕДЕЛЕНО***\n    * @param _weiAmount Value in wei to be converted into tokens\n    * @return Number of tokens that can be purchased with the specified _weiAmount\n    */\n    function _getTokenAmount(uint256 _weiAmount) internal view returns (uint256) {\n        // Если с начала распродаж прошло 14 дней, то повышаем цену на токен\n        if (now > start.add(15 * 1 days)) {\n            rate = rate2;\n        }\n        \n        return _weiAmount * rate; //.div(rate);\n    }\n\n  /**\n   * @dev Validation of an incoming purchase. Use require statements to revert state when conditions are not met. Use super to concatenate validations. ***ПЕРЕОПРЕДЕЛЕНО***\n   * @param _beneficiary Address performing the token purchase\n   * @param _weiAmount Value in wei involved in the purchase\n   */\n    function _preValidatePurchase(address _beneficiary, uint256 _weiAmount) internal {\n        require(_beneficiary != address(0));\n        require(_weiAmount != 0);\n\n        require(now > start && now < start + period * 1 days);\n\n        // calculate token amount to be created\n        uint256 tokens = _getTokenAmount(_weiAmount);\n        // Считаем выпущенные токены\n        totalMinted = totalMinted.add(tokens);\n\n        // Выпущенных токенов должно быть меньше общего кол-ва\n        require(totalSupply >= totalMinted);\n\n    }\n}",
  "sourcePath": "/media/documents/guartem/ether_contracts/CryptohomaToken/contracts/CryptohomaCrowndsale.sol",
  "compiler": {
    "name": "solc",
    "version": "0.4.21+commit.dfe3193c.Emscripten.clang"
  },
  "schemaVersion": "2.0.0",
  "updatedAt": "2018-04-15T15:59:28.252Z"
}