{
  "contractName": "CryptohomaToken",
  "abi": [
    {
      "constant": true,
      "inputs": [],
      "name": "mintingFinished",
      "outputs": [
        {
          "name": "",
          "type": "bool"
        }
      ],
      "payable": false,
      "stateMutability": "view",
      "type": "function"
    },
    {
      "constant": true,
      "inputs": [],
      "name": "name",
      "outputs": [
        {
          "name": "",
          "type": "string"
        }
      ],
      "payable": false,
      "stateMutability": "view",
      "type": "function"
    },
    {
      "constant": false,
      "inputs": [
        {
          "name": "_spender",
          "type": "address"
        },
        {
          "name": "_value",
          "type": "uint256"
        }
      ],
      "name": "approve",
      "outputs": [
        {
          "name": "",
          "type": "bool"
        }
      ],
      "payable": false,
      "stateMutability": "nonpayable",
      "type": "function"
    },
    {
      "constant": true,
      "inputs": [],
      "name": "totalSupply",
      "outputs": [
        {
          "name": "",
          "type": "uint256"
        }
      ],
      "payable": false,
      "stateMutability": "view",
      "type": "function"
    },
    {
      "constant": false,
      "inputs": [
        {
          "name": "_from",
          "type": "address"
        },
        {
          "name": "_to",
          "type": "address"
        },
        {
          "name": "_value",
          "type": "uint256"
        }
      ],
      "name": "transferFrom",
      "outputs": [
        {
          "name": "",
          "type": "bool"
        }
      ],
      "payable": false,
      "stateMutability": "nonpayable",
      "type": "function"
    },
    {
      "constant": true,
      "inputs": [],
      "name": "decimals",
      "outputs": [
        {
          "name": "",
          "type": "uint256"
        }
      ],
      "payable": false,
      "stateMutability": "view",
      "type": "function"
    },
    {
      "constant": false,
      "inputs": [
        {
          "name": "_to",
          "type": "address"
        },
        {
          "name": "_amount",
          "type": "uint256"
        }
      ],
      "name": "mint",
      "outputs": [
        {
          "name": "",
          "type": "bool"
        }
      ],
      "payable": false,
      "stateMutability": "nonpayable",
      "type": "function"
    },
    {
      "constant": false,
      "inputs": [
        {
          "name": "_value",
          "type": "uint256"
        }
      ],
      "name": "burn",
      "outputs": [],
      "payable": false,
      "stateMutability": "nonpayable",
      "type": "function"
    },
    {
      "constant": false,
      "inputs": [
        {
          "name": "_spender",
          "type": "address"
        },
        {
          "name": "_subtractedValue",
          "type": "uint256"
        }
      ],
      "name": "decreaseApproval",
      "outputs": [
        {
          "name": "",
          "type": "bool"
        }
      ],
      "payable": false,
      "stateMutability": "nonpayable",
      "type": "function"
    },
    {
      "constant": true,
      "inputs": [
        {
          "name": "_owner",
          "type": "address"
        }
      ],
      "name": "balanceOf",
      "outputs": [
        {
          "name": "balance",
          "type": "uint256"
        }
      ],
      "payable": false,
      "stateMutability": "view",
      "type": "function"
    },
    {
      "constant": false,
      "inputs": [],
      "name": "finishMinting",
      "outputs": [
        {
          "name": "",
          "type": "bool"
        }
      ],
      "payable": false,
      "stateMutability": "nonpayable",
      "type": "function"
    },
    {
      "constant": true,
      "inputs": [],
      "name": "owner",
      "outputs": [
        {
          "name": "",
          "type": "address"
        }
      ],
      "payable": false,
      "stateMutability": "view",
      "type": "function"
    },
    {
      "constant": true,
      "inputs": [],
      "name": "symbol",
      "outputs": [
        {
          "name": "",
          "type": "string"
        }
      ],
      "payable": false,
      "stateMutability": "view",
      "type": "function"
    },
    {
      "constant": false,
      "inputs": [
        {
          "name": "_to",
          "type": "address"
        },
        {
          "name": "_value",
          "type": "uint256"
        }
      ],
      "name": "transfer",
      "outputs": [
        {
          "name": "",
          "type": "bool"
        }
      ],
      "payable": false,
      "stateMutability": "nonpayable",
      "type": "function"
    },
    {
      "constant": false,
      "inputs": [
        {
          "name": "_spender",
          "type": "address"
        },
        {
          "name": "_addedValue",
          "type": "uint256"
        }
      ],
      "name": "increaseApproval",
      "outputs": [
        {
          "name": "",
          "type": "bool"
        }
      ],
      "payable": false,
      "stateMutability": "nonpayable",
      "type": "function"
    },
    {
      "constant": true,
      "inputs": [
        {
          "name": "_owner",
          "type": "address"
        },
        {
          "name": "_spender",
          "type": "address"
        }
      ],
      "name": "allowance",
      "outputs": [
        {
          "name": "",
          "type": "uint256"
        }
      ],
      "payable": false,
      "stateMutability": "view",
      "type": "function"
    },
    {
      "constant": false,
      "inputs": [
        {
          "name": "newOwner",
          "type": "address"
        }
      ],
      "name": "transferOwnership",
      "outputs": [],
      "payable": false,
      "stateMutability": "nonpayable",
      "type": "function"
    },
    {
      "anonymous": false,
      "inputs": [
        {
          "indexed": true,
          "name": "burner",
          "type": "address"
        },
        {
          "indexed": false,
          "name": "value",
          "type": "uint256"
        }
      ],
      "name": "Burn",
      "type": "event"
    },
    {
      "anonymous": false,
      "inputs": [
        {
          "indexed": true,
          "name": "to",
          "type": "address"
        },
        {
          "indexed": false,
          "name": "amount",
          "type": "uint256"
        }
      ],
      "name": "Mint",
      "type": "event"
    },
    {
      "anonymous": false,
      "inputs": [],
      "name": "MintFinished",
      "type": "event"
    },
    {
      "anonymous": false,
      "inputs": [
        {
          "indexed": true,
          "name": "previousOwner",
          "type": "address"
        },
        {
          "indexed": true,
          "name": "newOwner",
          "type": "address"
        }
      ],
      "name": "OwnershipTransferred",
      "type": "event"
    },
    {
      "anonymous": false,
      "inputs": [
        {
          "indexed": true,
          "name": "owner",
          "type": "address"
        },
        {
          "indexed": true,
          "name": "spender",
          "type": "address"
        },
        {
          "indexed": false,
          "name": "value",
          "type": "uint256"
        }
      ],
      "name": "Approval",
      "type": "event"
    },
    {
      "anonymous": false,
      "inputs": [
        {
          "indexed": true,
          "name": "from",
          "type": "address"
        },
        {
          "indexed": true,
          "name": "to",
          "type": "address"
        },
        {
          "indexed": false,
          "name": "value",
          "type": "uint256"
        }
      ],
      "name": "Transfer",
      "type": "event"
    }
  ],
  "bytecode": "0x606060409081526003805460a060020a60ff02191690558051908101604052600b81527f43727970746f486f6d61330000000000000000000000000000000000000000006020820152600490805161005b9291602001906100c8565b506040805190810160405260058082527f484f4d413300000000000000000000000000000000000000000000000000000060208301529080516100a29291602001906100c8565b50601260065560038054600160a060020a03191633600160a060020a0316179055610163565b828054600181600116156101000203166002900490600052602060002090601f016020900481019282601f1061010957805160ff1916838001178555610136565b82800160010185558215610136579182015b8281111561013657825182559160200191906001019061011b565b50610142929150610146565b5090565b61016091905b80821115610142576000815560010161014c565b90565b610d33806101726000396000f3006060604052600436106100f05763ffffffff7c010000000000000000000000000000000000000000000000000000000060003504166305d2035b81146100f557806306fdde031461011c578063095ea7b3146101a657806318160ddd146101c857806323b872dd146101ed578063313ce5671461021557806340c10f191461022857806342966c681461024a578063661884631461026257806370a08231146102845780637d64bcb4146102a35780638da5cb5b146102b657806395d89b41146102e5578063a9059cbb146102f8578063d73dd6231461031a578063dd62ed3e1461033c578063f2fde38b14610361575b600080fd5b341561010057600080fd5b610108610380565b604051901515815260200160405180910390f35b341561012757600080fd5b61012f6103a1565b60405160208082528190810183818151815260200191508051906020019080838360005b8381101561016b578082015183820152602001610153565b50505050905090810190601f1680156101985780820380516001836020036101000a031916815260200191505b509250505060405180910390f35b34156101b157600080fd5b610108600160a060020a036004351660243561043f565b34156101d357600080fd5b6101db6104ab565b60405190815260200160405180910390f35b34156101f857600080fd5b610108600160a060020a03600435811690602435166044356104b1565b341561022057600080fd5b6101db61061f565b341561023357600080fd5b610108600160a060020a0360043516602435610625565b341561025557600080fd5b610260600435610732565b005b341561026d57600080fd5b610108600160a060020a0360043516602435610819565b341561028f57600080fd5b6101db600160a060020a0360043516610913565b34156102ae57600080fd5b61010861092e565b34156102c157600080fd5b6102c96109db565b604051600160a060020a03909116815260200160405180910390f35b34156102f057600080fd5b61012f6109ea565b341561030357600080fd5b610108600160a060020a0360043516602435610a55565b341561032557600080fd5b610108600160a060020a0360043516602435610b55565b341561034757600080fd5b6101db600160a060020a0360043581169060243516610bf9565b341561036c57600080fd5b610260600160a060020a0360043516610c24565b60035474010000000000000000000000000000000000000000900460ff1681565b60048054600181600116156101000203166002900480601f0160208091040260200160405190810160405280929190818152602001828054600181600116156101000203166002900480156104375780601f1061040c57610100808354040283529160200191610437565b820191906000526020600020905b81548152906001019060200180831161041a57829003601f168201915b505050505081565b600160a060020a03338116600081815260026020908152604080832094871680845294909152808220859055909291907f8c5be1e5ebec7d5bd14f71427d1e84f3dd0314c0f7b2291e5b200ac8c7c3b9259085905190815260200160405180910390a350600192915050565b60015490565b6000600160a060020a03831615156104c857600080fd5b600160a060020a0384166000908152602081905260409020548211156104ed57600080fd5b600160a060020a038085166000908152600260209081526040808320339094168352929052205482111561052057600080fd5b600160a060020a038416600090815260208190526040902054610549908363ffffffff610cbf16565b600160a060020a03808616600090815260208190526040808220939093559085168152205461057e908363ffffffff610cd116565b600160a060020a03808516600090815260208181526040808320949094558783168252600281528382203390931682529190915220546105c4908363ffffffff610cbf16565b600160a060020a0380861660008181526002602090815260408083203386168452909152908190209390935590851691600080516020610ce88339815191529085905190815260200160405180910390a35060019392505050565b60065481565b60035460009033600160a060020a0390811691161461064357600080fd5b60035474010000000000000000000000000000000000000000900460ff161561066b57600080fd5b60015461067e908363ffffffff610cd116565b600155600160a060020a0383166000908152602081905260409020546106aa908363ffffffff610cd116565b600160a060020a0384166000818152602081905260409081902092909255907f0f6798a560793a54c3bcfe86a93cde1e73087d944c0ea20544137d41213968859084905190815260200160405180910390a2600160a060020a0383166000600080516020610ce88339815191528460405190815260200160405180910390a350600192915050565b600160a060020a03331660009081526020819052604081205482111561075757600080fd5b5033600160a060020a03811660009081526020819052604090205461077c9083610cbf565b600160a060020a0382166000908152602081905260409020556001546107a8908363ffffffff610cbf16565b600155600160a060020a0381167fcc16f5dbb4873280815c1ee09dbd06736cffcc184412cf7a71a0fdb75d397ca58360405190815260200160405180910390a26000600160a060020a038216600080516020610ce88339815191528460405190815260200160405180910390a35050565b600160a060020a0333811660009081526002602090815260408083209386168352929052908120548083111561087657600160a060020a0333811660009081526002602090815260408083209388168352929052908120556108ad565b610886818463ffffffff610cbf16565b600160a060020a033381166000908152600260209081526040808320938916835292905220555b600160a060020a0333811660008181526002602090815260408083209489168084529490915290819020547f8c5be1e5ebec7d5bd14f71427d1e84f3dd0314c0f7b2291e5b200ac8c7c3b925915190815260200160405180910390a35060019392505050565b600160a060020a031660009081526020819052604090205490565b60035460009033600160a060020a0390811691161461094c57600080fd5b60035474010000000000000000000000000000000000000000900460ff161561097457600080fd5b6003805474ff00000000000000000000000000000000000000001916740100000000000000000000000000000000000000001790557fae5184fba832cb2b1f702aca6117b8d265eaf03ad33eb133f19dde0f5920fa0860405160405180910390a150600190565b600354600160a060020a031681565b60058054600181600116156101000203166002900480601f0160208091040260200160405190810160405280929190818152602001828054600181600116156101000203166002900480156104375780601f1061040c57610100808354040283529160200191610437565b6000600160a060020a0383161515610a6c57600080fd5b600160a060020a033316600090815260208190526040902054821115610a9157600080fd5b600160a060020a033316600090815260208190526040902054610aba908363ffffffff610cbf16565b600160a060020a033381166000908152602081905260408082209390935590851681522054610aef908363ffffffff610cd116565b60008085600160a060020a0316600160a060020a031681526020019081526020016000208190555082600160a060020a031633600160a060020a0316600080516020610ce88339815191528460405190815260200160405180910390a350600192915050565b600160a060020a033381166000908152600260209081526040808320938616835292905290812054610b8d908363ffffffff610cd116565b600160a060020a0333811660008181526002602090815260408083209489168084529490915290819020849055919290917f8c5be1e5ebec7d5bd14f71427d1e84f3dd0314c0f7b2291e5b200ac8c7c3b92591905190815260200160405180910390a350600192915050565b600160a060020a03918216600090815260026020908152604080832093909416825291909152205490565b60035433600160a060020a03908116911614610c3f57600080fd5b600160a060020a0381161515610c5457600080fd5b600354600160a060020a0380831691167f8be0079c531659141344cd1fd0a4f28419497f9722a3daafe3b4186f6b6457e060405160405180910390a36003805473ffffffffffffffffffffffffffffffffffffffff1916600160a060020a0392909216919091179055565b600082821115610ccb57fe5b50900390565b600082820183811015610ce057fe5b93925050505600ddf252ad1be2c89b69c2b068fc378daa952ba7f163c4a11628f55a4df523b3efa165627a7a723058200f18b9ccb30259cb2997eeef2d84d5abe3e16a20d9fbdd8fcbe19ba1f8c2a0060029",
  "source": "pragma solidity ^0.4.18;\n\nimport \"zeppelin-solidity/contracts/token/ERC20/MintableToken.sol\";\nimport \"zeppelin-solidity/contracts/token/ERC20/StandardToken.sol\";\nimport \"zeppelin-solidity/contracts/token/ERC20/BurnableToken.sol\";\n\n/**\n * Контракт CryptoHoma\n */\ncontract CryptohomaToken is StandardToken, MintableToken, BurnableToken {\n    \n    string public name = \"CryptoHoma3\";\n    string public symbol = \"HOMA3\";\n    uint public decimals = 18;\n\n}",
  "sourcePath": "/media/documents/guartem/ether_contracts/CryptohomaToken/contracts/CryptohomaToken.sol",
  "compiler": {
    "name": "solc",
    "version": "0.4.21+commit.dfe3193c.Emscripten.clang"
  },
  "schemaVersion": "2.0.0",
  "updatedAt": "2018-04-18T19:58:08.080Z"
}